S01D000054617266666963204C6967687420436F6E74726F6C2E737265632F
S11300000C942A000C9447000C9452010C94470061
S11300100C9447000C9447000C9447000C94470040
S11300200C9447000C9447000C94F8010C94D101F3
S11300300C9447000C9447000C9447000C94470020
S11300400C9447000C9447000C9447000C94470010
S11300500C94470011241FBECFE5D8E0DEBFCDBF0E
S113006010E0A0E6B0E0E2E4F4E002C005900D92F6
S1130070AC36B107D9F720E0ACE6B0E001C01D9280
S1130080A437B207E1F70E9439010C941F020C94C3
S11300900000CF9380916C008F5F80936C008D374C
S11300A071F480916100811103C08BE08093610041
S11300B08091610081508093610010926C00609186
S11300C06100CDEC6C9F612D112466956695669553
S11300D080E00E948201609161006C9FC12D112417
S11300E0C695C695C695CC0F8C2F880F880FC80F60
S11300F06C1B81E00E94820180916F008130E9F4E1
S113010060916100CDEC6C9F612D1124669566951C
S1130110669582E00E948201609161006C9FC12D0E
S11301201124C695C695C695CC0F8C2F880F880FC1
S1130130C80F6C1B83E00E948201CF910895C29B7B
S11301401FC088B3886088BB88B3846088BB18C02C
S113015088B3806288BB98B382E0892788BB98B350
S113016080E1892788BB8FEA94E00197F1F700C00A
S1130170000080916100811103C08AE080936100D6
S113018080916100863020F3863020F08CE088BBBB
S113019021E028C020E026C088B38B7F88BB98B3B9
S11301A082E0892788BB98B380E1892788BB88B31C
S11301B0886088BB8FEA94E00197F1F700C00000E3
S11301C08091610081110EC018BA81E080936D00A6
S11301D09AE09093610010926E00809360001092F8
S11301E06F0020E080916100863010F42130A1F28C
S11301F0089580916000813099F480916100863087
S113020078F081E088BB03C088B3806288BB8091AA
S11302106D00882369F1809161008630A8F7089504
S1130220809161008630E0F498B382E0892788BB2E
S11302308FEA94E00197F1F700C0000010926D007E
S113024018BA80916000813029F480936E00109276
S11302506000089510926E0081E08093600008951C
S113026090916E00913021F4863010F084E088BBC8
S1130270089589E490E090937300809372008CE772
S11302800E94BD010E94AA010E9478018FEF87BBE2
S113029080916F00813019F00E94F900F9CF0E941B
S11302A09F00F6CF1F920F920FB60F9211248F93D7
S11302B080916F008130B1F0C29B07C08AE08093C7
S11302C0610081E080936F000DC0C09904C08091EB
S11302D06100863038F485E08093610018BA81E0CB
S11302E080936F008F910F900FBE0F901F90189501
S11302F084B38FEF84BB8AB38F608ABB8BB3807F58
S11303008BBB08959BB3907F9BBB813051F028F049
S1130310823059F0833069F00FC08BB381608BBB9E
S11303200BC08BB382608BBB07C08BB384608BBB69
S113033003C08BB388608BBBE62FF0E0EE59FF4F10
S11303408081809585BB8FEC97E00197F1F700C021
S11303500000089581B3877F81BB82B3886082BB2C
S113036085B7886085BF85B7846085BF8BB7806893
S11303708BBF8FB780688FBF089593B7916093BF89
S113038093B7946093BF93B7906893BF93B7986003
S113039093BF8CBF89B7826089BF8FB780688FBFD6
S11303A008951F920F920FB60F9211242F933F932B
S11303B04F935F936F937F938F939F93AF93BF9369
S11303C0EF93FF93E0917000F09171000995FF9114
S11303D0EF91BF91AF919F918F917F916F915F91B9
S11303E04F913F912F910F900FBE0F901F90189532
S11303F01F920F920FB60F9211242F933F934F9396
S11304005F936F937F938F939F93AF93BF93EF9378
S1130410FF93E0917200F09173000995FF91EF91C1
S1130420BF91AF919F918F917F916F915F914F9108
S11304303F912F910F900FBE0F901F901895F89435
S1050440FFCFE8
S10F0442010A3F065B4F666D7D077F6F6B
S9030000FC
